:020000040800F2
:10000000900A00209D010008852600086F22000844
:1000100081260008B1020008213600080000000017
:10002000000000000000000000000000072C000895
:10003000B502000800000000C1260008292C0008B5
:10004000B7010008B7010008B7010008B7010008B0
:10005000B7010008B7010008B7010008B7010008A0
:10006000B7010008B7010008B7010008B701000890
:10007000B7010008B7010008B7010008B701000880
:10008000B7010008B7010008B7010008B701000870
:10009000B7010008B7010008B7010008B70200085F
:1000A000B7010008B7010008B7010008B701000850
:1000B000B7010008152D0008B7010008B7010008B6
:1000C000B7010008B7010008B7010008B701000830
:1000D000B7010008B701000811360008B701000891
:1000E000B7010008B7010008B7010008B701000810
:1000F000B7010008B7010008B7010008B701000800
:10010000B7010008B7010008B7010008B7010008EF
:10011000B7010008B7010008B7010008B7010008DF
:10012000B7010008B7010008B7010008B7010008CF
:10013000B7010008B7010008B7010008B7010008BF
:10014000B7010008B7010008B7010008B7010008AF
:10015000B7010008B7010008B7010008B70100089F
:10016000B7010008B7010008B7010008B70100088F
:10017000B7010008B7010008B7010008000000003F
:10018000B7010008B7010008DFF80CD000F07EF8D6
:100190000048004781360008900A00200648804742
:1001A00006480047FEE7FEE7FEE7FEE7FEE7FEE75C
:1001B000FEE7FEE7FEE7FEE7C52C00088901000820
:1001C0002DE9F05F0546002092469B46884606468C
:1001D000814640241BE0284641464746224600F01F
:1001E00044F853465A46C01A914110D31146184656
:1001F000224600F02BF82D1A67EB01084F462246E5
:100200000120002100F022F817EB00094E41201ECA
:10021000A4F10104DFDC484631462A46434600F09B
:1002200000B830BCBDE8C09FD2B201E000F8012B9D
:10023000491EFBD270470022F6E710B513460A4666
:1002400004461946FFF7F0FF204610BD202A04DBC4
:10025000203A00FA02F1002070479140C2F12003D9
:1002600020FA03F3194390407047202A04DB203A18
:1002700021FA02F00021704721FA02F3D040C2F1C6
:10028000200291400843194670470000064C074D74
:1002900006E0E06840F0010394E807009847103456
:1002A000AC42F6D3FFF774FF4C3800086C380008F6
:1002B00000BFFEE7704710B5802000F089F810BD40
:1002C0007047000002460C48016840F2AF4081428E
:1002D00001D2481C00E00020014608480068814225
:1002E00002D14FF0FF3070470548405C1070024863
:1002F00001600020F7E700000C000020080000204B
:100300008400002070B50446002594F825000228DA
:1003100003D00420E063012520E02068006820F07D
:100320000E00216808602068006820F00100216844
:10033000086094F8440000F01C0101208840216C02
:100340004860012084F8250000BF002084F82400C4
:1003500000BFA06B10B12046A16B8847284670BD36
:1003600070B5044600F04AF906462546681C00B1FF
:100370006D1C00BF00F042F9801BA842FAD370BD8B
:1003800010B50446802C17D10C48007888B90C4968
:100390000C4801F0ECFF0A48007868B140F6FF73A2
:1003A000074802780749084801F0FCFE01F09EFF6B
:1003B00002E001200549087010BD00000500002082
:1003C0000400002020000020180600200600002065
:1003D00010B5044604480068204020B1024804607B
:1003E0002046FFF7CDFF10BD1404014078B5034649
:1003F0000022E5E0012696400D6805EA0604002C7F
:100400007DD04D68022D02D04D68122D13D1D60833
:1004100003F1200555F826005507EE0E0F25B540CF
:10042000A8435607F60E0D69B5402843D60803F1D8
:10043000200545F82600186856000325B540A84356
:100440000D7905F003055600B540284318604D6846
:10045000012D08D04D68022D05D04D68112D02D018
:100460004D68122D13D1986856000325B540A84356
:100470005600CD68B54028439860586801259540DE
:10048000A8430D79C5F300159540284358600D79B0
:1004900005F00305032D09D1D86A01259540A8432D
:1004A0000D79C5F3C00595402843D862D868560039
:1004B0000325B540A84356008D68B5402843D86051
:1004C0004D6805F08055B5F1805F78D100BF3F4D94
:1004D0002D6E45F001053D4E356635462D6E05F015
:1004E0000105009500BF00BF4FEAB635960855F8E4
:1004F000260095072E0F0F25B540A84300E05EE0CB
:10050000B3F1904F01D100251EE0314DAB4201D136
:10051000012519E02F4DAB4201D1022514E02E4DEB
:10052000AB4201D103250FE02C4DAB4201D1042594
:100530000AE02B4DAB4201D1052505E0294DAB4228
:1005400001D1062500E007259607360FB540284360
:10055000254D960845F82600244D2868A0434D688F
:1005600005F48035B5F5803F00D120431F4D28604C
:100570002D1D2868A0434D6805F40035B5F5003FF2
:1005800000D12043194D2D1D28602D1D2868A04342
:100590004D6805F48015B5F5801F00D12043134D3B
:1005A000083528602D1D2868A0434D6805F4001506
:1005B000B5F5001F00D120430C4D0C352860521CAE
:1005C0000D68D540002D7FF415AF78BD00100240B6
:1005D0000004004800080048000C004800100048D3
:1005E00000140048001800480800014000040140C1
:1005F0000AB1816100E08162704700000148006833
:10060000704700001800002002480068401C0149A3
:10061000086070471800002010B5002409480068E1
:1006200040F4807007490860032000F093F8002030
:1006300000F00AF808B1012401E000F01DF820469E
:1006400010BD00000020024070B504460025094896
:1006500000684FF47A71B0FBF1F6304601F0BDF955
:1006600008B1012504E000222146501E00F031F8B7
:10067000284670BD1C00002008B500BF0D48006E64
:1006800040F001000B4908660846006E00F00100CA
:10069000009000BF00BF00BF0846806D40F0805052
:1006A00088650846806D00F08050009000BF00BF54
:1006B00008BD00000010024000BF00F01F02012131
:1006C00091404209920002F1E022C2F8001100BFFD
:1006D00070472DE9F05F80460D461646002701F071
:1006E000D3FF074639462A46334601F00700C0F1DA
:1006F000070ABAF1040F02D94FF0040A01E0C0F171
:10070000070AD14600F1040ABAF1070F02D24FF0EE
:10071000000A01E0A0F1030AD4464FF0010A0AFAE8
:1007200009FAAAF1010A0AEA020A0AFA0CFA4FF0D7
:10073000010B0BFA0CFBABF1010B0BEA030B4AEAC2
:100740000B042146404601F0A7FF00F000B830BC82
:10075000BDE8C09F00BF00F00702064B19684FF6C6
:10076000FF031940044B0B4343EA0221014B19607C
:1007700000BF70470CED00E00000FA050246B2F53C
:10078000007F2AD11D48006800F4C060B0F5007FEA
:1007900032D01A48006820F4C06040F40070174B53
:1007A00018601748006832235843164BB0FBF3F02B
:1007B000411C00E0491E1148406900F48060B0F51A
:1007C000806F01D10029F5D10C48406900F48060A8
:1007D000B0F5806F10D1032070470848006800F41E
:1007E000C060B0F5806F07D00448006820F4C06096
:1007F00040F48060014B18600020EDE7007000407D
:100800001C00002040420F000248006800F4C06055
:1008100070470000007000402DE9F84304460025B1
:10082000A846208800F40060B0F5006F30D1606EFB
:1008300080B1B0F5800F13D0B0F5000F03D0B0F544
:10084000400F15D113E0FB48C06840F48030F949EF
:10085000C8600FE00021201D01F034FF054609E0CB
:10086000002104F1200001F0F3FF054602E001E061
:10087000012500BF00BF55B9EE488830006820F45C
:100880004000616E0843EB49C1F8880000E0A846CB
:10089000208800F48050B0F5805F30D1A06E80B128
:1008A000B0F1807F13D0B0F1007F03D0B0F1407F72
:1008B00015D113E0DF48C06840F48030DD49C860DE
:1008C0000FE00021201D01F0FDFE054609E000219A
:1008D00004F1200001F0BCFF054602E001E0012523
:1008E00000BF00BF55B9D3488830006820F0407081
:1008F000A16E0843CF49C1F8880000E0A8462068EF
:1009000000F40030B0F5003F77D14FF00009C9483E
:10091000806D012121EA107078B100BFC548806D5B
:1009200040F08050C34988650846806D00F08050D3
:10093000009000BF00BF4FF00109BF48006840F4BD
:100940008070BD490860FFF759FE074606E0FFF7D3
:1009500055FEC01B022801D9032505E0B6480068F2
:1009600000F480700028F2D000BF85BBB148903001
:10097000006800F44076D6B1D4F88400B04216D0B6
:10098000AC489030006820F44076AA48D0F8900037
:1009900040F48030A749C1F890000846D0F8900094
:1009A00020F48030C1F890000846C0F8906006F04E
:1009B0000100A8B1FFF722FE074609E0FFF71EFE7F
:1009C000C01B41F28831884202D9032507E017E0B5
:1009D00098489030006800F002000028EED000BF78
:1009E00065B994489030006820F44070D4F88410C1
:1009F00008439049C1F8900003E00CE0A84600E0ED
:100A0000A846B9F1010F05D18A48806D20F08050C9
:100A10008849886500BF207800F0010048B185480A
:100A20008830006820F00300A16B08438149C1F8B9
:100A30008800207800F00200022809D17D48883023
:100A4000006820F00C00E16B08437A49C1F8880087
:100A5000207800F00400042809D176488830006826
:100A600020F03000216C08437249C1F888002078DA
:100A700000F00800082809D16E488830006820F08E
:100A8000C000616C08436B49C1F88800207800F011
:100A90001000102809D167488830006820F44070A1
:100AA000A16C08436349C1F88800207800F0200059
:100AB000202809D15F488830006820F44060E16C4C
:100AC00008435C49C1F88800208800F40070B0F544
:100AD000007F09D157488830006820F44020E16D3C
:100AE00008435449C1F88800208800F48060B0F5BC
:100AF000806F09D14F488830006820F44010216E83
:100B000008434C49C1F88800207800F04000402894
:100B100009D148488830006820F44050216D0843CE
:100B20004449C1F88800207800F08000802809D16D
:100B300040488830006820F44040616D08433D49DA
:100B4000C1F88800208800F48070B0F5807F09D15A
:100B500038488830006820F44030A16D084335499A
:100B6000C1F88800208800F40050B0F5005F1FD164
:100B700030488830006820F04060E16E08432D491D
:100B800088310860E06EB0F1006F06D12948C06876
:100B900040F480102749C8600AE0E06EB0F1806F31
:100BA00006D10121201D01F08DFD054605B1A846A5
:100BB000206800F40020B0F5002F1FD11D488830B8
:100BC000006820F04060216F08431A4988310860AE
:100BD000206FB0F1006F06D11648C06840F4801055
:100BE0001449C8600AE0206FB0F1806F06D101217E
:100BF000201D01F067FD054605B1A846206800F4F8
:100C00008020B0F5802F24D10A488830006820F079
:100C10004060616F0843074988310860606FB0F138
:100C2000006F0BD10348C06840F480100149C860D0
:100C30000FE000000010024000700040606FB0F153
:100C4000806F06D10121201D01F03CFD054605B154
:100C5000A846208800F48040B0F5804F1FD122487C
:100C6000006820F04050A16F08431F490860A06F42
:100C7000B0F1805F07D10221201D01F023FD054660
:100C80006DB1A8460BE0A06FB0F1005F07D1022163
:100C900004F1200001F0DCFD054605B1A8462088DE
:100CA00000F40040B0F5004F09D10F48006820F073
:100CB0008040E16F08430C498839C1F888002068FA
:100CC00000F48030B0F5803F0AD10748006820F07A
:100CD0000040D4F88010084303498839C1F88800DF
:100CE0004046BDE8F8830000881002402DE9F0413D
:100CF00004460D4614B90120BDE8F081554800684E
:100D000000F00700A8420ED25248006820F0070009
:100D10002843504908600846006800F00700A842D0
:100D200001D00120E8E7207800F00100002840D041
:100D30006068032806D14848006800F00070D8B900
:100D40000120D9E76068022806D14348006800F412
:100D5000003088B90120CFE7606830B93E480068AC
:100D600000F0020040B90120C6E73B48006800F4EB
:100D7000806008B90120BFE73748806820F0030091
:100D80006168084334498860FFF738FC064608E08C
:100D9000FFF734FC801B41F28831884201D90320DF
:100DA000AAE72D48806800F00C006168B0EB810F65
:100DB000EED1207800F00200022807D12648806892
:100DC00020F0F000A16808432349886021480068AA
:100DD00000F00700A8420ED91E48006820F0070066
:100DE00028431C4908600846006800F00700A84234
:100DF00001D0012080E7207800F00400042807D10A
:100E00001548806820F4E060E16808431249886072
:100E1000207800F00800082808D10F48806820F4E6
:100E20006050216940EAC1000B49886000F044F835
:100E300009498968C1F30311084A515C01F01F0197
:100E4000C840074908600020FFF7FEFB0746384608
:100E500052E7000000200240001002400438000861
:100E60001C00002001480068704700001C000020A2
:100E700000B5FFF7F7FF05498968C1F30221044A6D
:100E8000515C01F01F01C84000BD0000001002408D
:100E90001438000800B5FFF7E5FF05498968C1F37C
:100EA000C221044A515C01F01F01C84000BD00008E
:100EB00000100240143800082DE9F0410024002001
:100EC000DFF800C1DCF808C00CF00C01DFF8F4C05A
:100ED000DCF80CC00CF0030719B10C291ED1012F4E
:100EE0001CD1DFF8E0C0DCF800C00CF0080CBCF14D
:100EF000000F06D1DFF8CCC0DCF894C0CCF303249B
:100F000005E0DFF8C0C0DCF800C0CCF30314DFF864
:100F1000B8C05CF8244041B9204606E0042901D15C
:100F20002A4802E0082900D129480C2947D1DFF8D6
:100F300094C0DCF80CC00CF00305DFF888C0DCF8C6
:100F40000CC0CCF3021C0CF10103012D1FD0022DAB
:100F500002D0032D1AD10CE0DFF870C0BCFBF3FC0B
:100F6000DFF86080D8F80C80C8F306280CFB08F284
:100F700018E0DFF85CC0BCFBF3FCDFF84880D8F871
:100F80000C80C8F306280CFB08F20BE000BFB4FB92
:100F9000F3FCDFF83080D8F80C80C8F306280CFB8F
:100FA00008F200BF00BFDFF81CC0DCF80CC0CCF3B7
:100FB000416C0CF1010C4FEA4C06B2FBF6F0BDE8B7
:100FC000F0810000001002401C3800080024F400EA
:100FD00000127A002DE9F843044614B90120BDE857
:100FE000F883F848806800F00C06F648C06800F006
:100FF0000307207800F01000102875D11EB10C2EC8
:1010000074D1012F72D1EF48006800F0020018B1CE
:10101000A06908B90120E2E7EA48216A006800F007
:10102000080020B1E748006800F0F00005E0E5485E
:101030009430006800F47060000981421FD9206A72
:1010400001F0B8FC08B10120C9E700BFDD48006825
:1010500040F00800DB4908600846006820F0F00016
:10106000216A0843D749086000BF0846406820F459
:101070007F40E16940EA0120D24948601EE000BF9C
:10108000D048006840F00800CE4908600846006873
:1010900020F0F000216A0843CA49086000BF0846F2
:1010A000406820F47F40E16940EA0120C54948607A
:1010B000206A01F07FFC08B1012090E7FFF7FCFEF9
:1010C000C0498968C1F30311BF4A515C01F01F0197
:1010D000C840BE4908600020FFF7B6FA8046B8F164
:1010E000000F4ED040467AE74BE0FFE7A06980B39F
:1010F000B448006840F00100B2490860FFF77EFA8A
:10110000054606E0FFF77AFA401B022801D90320C2
:1011100065E7AC48006800F002000028F2D000BF8C
:10112000A848006840F00800A64908600846006822
:1011300020F0F000216A0843A249086000BF084679
:10114000406820F47F40E16940EA01209D49486001
:1011500017E0FFE79B48006820F00100994908600C
:10116000FFF74CFA054606E0FFF748FA401B022855
:1011700001D9032033E79348006800F002000028FB
:10118000F2D1207800F0010000285CD0082E03D0B6
:101190000C2E0AD1032F08D18A48006800F40030D1
:1011A00088B3606878BB012019E700BF6068B0F5BC
:1011B000803F06D18348006840F480308149086050
:1011C0001AE06068B0F5A02F0BD17E48006840F4AB
:1011D00080207C4908600846006840F48030086040
:1011E0000AE07848006820F48030764908600846B4
:1011F000006820F48020086000BF606890B1FFF7AD
:10120000FDF9054607E01EE0FFF7F8F9401B6428EA
:1012100001D90320E3E66B48006800F400300028A1
:10122000F2D010E0FFF7EAF9054606E0FFF7E6F92D
:10123000401B642801D90320D1E66248006800F40D
:1012400000300028F2D1207800F00200022852D1AC
:10125000042E03D00C2E14D1022F12D1594800684D
:1012600000F4806018B1E06808B90120B7E655487D
:10127000406820F0F850217C40EA01605149486004
:1012800039E0E06800B34F48006840F480704D4991
:101290000860FFF7B3F9054606E0FFF7AFF9401B1A
:1012A000022801D903209AE64648006800F48060CD
:1012B0000028F2D04348406820F0F850217C40EAF2
:1012C00001604049486016E03E48006820F48070A4
:1012D0003C490860FFF792F9054606E0FFF78EF9F2
:1012E000401B022801D9032079E63648006800F443
:1012F00080600028F2D1207800F00800082836D15C
:101300006069D0B12F489430006840F001002D4949
:10131000C1F89400FFF772F9054606E0FFF76EF991
:10132000401B022801D9032059E626489430006862
:1013300000F002000028F1D019E022489430006843
:1013400020F001001F49C1F89400FFF757F9054646
:1013500006E0FFF753F9401B022801D903203EE6BF
:1013600018489430006800F002000028F1D120787D
:1013700000F00400042870D14FF000091148806D7E
:1013800000F0805078B900BF0E48806D40F080506A
:101390000C4988650846806D00F08050009000BFC1
:1013A00000BF4FF001090A48006800F48070F0B9EE
:1013B0000748006840F4807005490860FFF71EF98F
:1013C00005460EE000100240043800081C00002012
:1013D00000700040FFF712F9401B022801D90320DA
:1013E000FDE57C48006800F480700028F2D000BF62
:1013F000A068012808D17848006840F001007649CB
:101400009039C1F8900021E0A06805280FD17248FA
:10141000006840F0040070499039C1F89000084617
:10142000D0F8900040F00100C1F890000EE06A484A
:10143000006820F0010068499039C1F89000084622
:10144000D0F8900020F00400C1F8900000BFA06820
:10145000A0B1FFF7D3F8054609E02EE0FFF7CEF87C
:10146000401B41F28831884201D90320B7E55A4830
:10147000006800F002000028F0D012E0FFF7BEF88C
:10148000054608E0FFF7BAF8401B41F28831884270
:1014900001D90320A3E55048006800F002000028AD
:1014A000F0D1B9F1010F07D14B489038806D20F091
:1014B000805049499039886500BFA06AF0B30C2E6E
:1014C00074D0A06A022853D143489038006820F0B5
:1014D0008070414990390860FFF790F8054606E0B2
:1014E000FFF78CF8401B022801D9032077E53A4822
:1014F0009038006800F000700028F1D1206B401E89
:101500000101606B41EA0021A06B000941EA404003
:10151000E16A0843A18F0122C2EB510140EA415127
:101520004020005DC2EB500041EA40602A499039FA
:10153000C8600846006840F0807000E048E008603D
:101540000846C06840F08070C860FFF757F805464D
:1015500006E0FFF753F8401B022801D903203EE5BF
:101560001D489038006800F000700028F1D02FE08E
:1015700019489038006820F0807017499039086049
:101580000846006800F0205020B90846C06820F0E6
:101590000300C86010489038C068104908400E49E0
:1015A0009039C860FFF72AF8054607E00EE0FFF71C
:1015B00025F8401B022801D9032010E50648903881
:1015C000006800F000700028F1D101E0012006E57C
:1015D000002004E50070004090100240FFFFEEFE86
:1015E00070B504460CB9012070BD606A00B900BF37
:1015F0000021A16294F85D0028B9002084F85C0005
:10160000204600F04DF8022084F85D002068006854
:1016100020F0400021680860E068B0F5E06F01D973
:10162000002501E04FF48055E068B0F5706F05D0FB
:10163000E068B0F5E06F01D00021A162206B40B9F5
:10164000E068B0F5E06F02D90221216301E00121D9
:101650002163D4E901010843216908436169084312
:10166000218B01F400710843E1690843216A0843B2
:10167000A16A0843216808600421A06901EA1040BA
:10168000616A0843616B0843E168084328432168A5
:10169000486000202066012084F85D000020A3E758
:1016A00010B586B00446142101A8FEF7C4FD184900
:1016B0002068884229D100BF1648006E40F480504F
:1016C000144908660846006E00F48050009000BF80
:1016D00000BF00BF0846C06C40F00100C864084667
:1016E000C06C00F00100009000BF00BFE02001903E
:1016F0000220029000200390032004900520059012
:1017000001A94FF09040FEF771FE06B010BD000039
:1017100000300140001002402DE9FF5F0446894679
:1017200092461D460E9E012001900020009000BFB1
:1017300094F85C00012803D1022004B000F04AB9FB
:10174000012084F85C0000BFFEF758FF074694F8BC
:101750005D00029060680390A846AB46029801289D
:101760000BD00398B0F5827F04D1A06810B902981D
:10177000042802D00220009022E1B9F1000F03D02A
:10178000BAF1000F00D015B90120009018E194F8CB
:101790005D00042802D0052084F85D00002020664A
:1017A000C4F840A0A4F84650A4F84450C4F83890B7
:1017B000E587A587E0642065E068B0F5E06F02D8B2
:1017C000BBF1010F06D92068406820F480502168E1
:1017D000486005E02068406840F480502168486017
:1017E0002068006800F04000402805D020680068AC
:1017F00040F0400021680860E068B0F5E06F4ED925
:10180000606810B1B8F1010F09D1A06B00882168A0
:10181000C860A06B801CA063E08F401EE08736E0AC
:101820002068806800F00200022810D1E08F70B1BB
:10183000019801280BD1A06B00882168C860A06BBB
:10184000801CA063E08F401EE0870020019020688C
:10185000806800F0010080B1B4F8460068B12068EB
:10186000C068216C0880206C801C2064B4F846009D
:10187000401EA4F8460001200190FEF7BFFEC01BE9
:10188000B04204D3701C10B10320009098E0E08FA8
:101890000028C5D1B4F846000028C1D185E06068B1
:1018A00010B1B8F1010F17D1E08F01280AD9A06B50
:1018B00000882168C860A06B801CA063E08F801E38
:1018C000E08709E0A06B007821680873A06B401CDA
:1018D000A063E08F401EE08760E02068806800F031
:1018E000020002281ED1E08FE0B10198012819D131
:1018F000E08F01280AD9A06B00882168C860A06B1E
:10190000801CA063E08F801EE08709E0A06B007858
:1019100021680873A06B401CA063E08F401EE08725
:10192000002001902068806800F0010058B3B4F8EE
:10193000460040B3B4F84600012816D92068C068B4
:10194000216C0880206C801C2064B4F84600801E46
:10195000A4F84600B4F84600012812D82068406870
:1019600040F48050216848600BE02068007B216CC7
:101970000870206C401C2064B4F84600401EA4F897
:10198000460001200190FEF739FEC01BB04201D392
:10199000701C00B916B90320009011E0E08F0028F8
:1019A0009BD1B4F84600002897D13A4631462046EC
:1019B00001F04EF818B1012000902020206600BFF1
:1019C000012084F85D0000BF002084F85C0000BFA7
:1019D0000098B2E630BCBDE8C09F70B5044625460D
:1019E000681EB0F1807F01D301200FE0681E4FF028
:1019F000E02148610F214FF0FF3000F04DFE002044
:101A00004FF0E021886107200861002070BD704719
:101A10007047704730B502460B4600BF92F83C0055
:101A2000012801D1022030BD012082F83C0000BF16
:101A3000022082F83D001068416810688468114DEA
:101A40001068A84203D0104D1068A84203D121F4B9
:101A500070015868014321F070011868014324F0B7
:101A60008004986804431068416010688460012015
:101A700082F83D0000BF002082F83C0000BF00BF9C
:101A8000D1E70000002C01400034014010B50446AD
:101A90000CB9012010BD94F83D0028B9002084F84D
:101AA0003C00204600F00CF8022084F83D00211D87
:101AB000206801F037F9012084F83D000020E9E7B3
:101AC00038B504460D492068884215D100BF0C483E
:101AD000806D40F002000A4988650846806D00F07C
:101AE0000200009000BF00BF002201211D20FEF770
:101AF000F0FD1D20FEF7E0FD38BD000000040040B1
:101B0000001002402DE9F04104460D4600BF94F854
:101B10003C00012802D10220BDE8F081012084F8B8
:101B20003C0000BF022084F83D00206886683C48E5
:101B3000064026F47F4620688660286850283CD0FE
:101B40000CDC202859D004DC002854D010285AD1AD
:101B500052E0302852D0402855D142E0602836D09B
:101B600070280ED0B0F5805F03D0B0F5005F4AD189
:101B700016E0206880682A49703108402168886032
:101B800042E0D5E902136A68206801F031F9206863
:101B900086682348064046F077062068866033E072
:101BA000D5E902136A68206801F022F9206880688C
:101BB00040F480402168886026E0EA68696820680F
:101BC00001F02AF95021206801F01DF91CE0EA68B3
:101BD0006968206801F033F96021206801F013F989
:101BE00012E0EA686968206801F016F9402120686F
:101BF00001F009F908E000BF00BF00BF29682068B4
:101C000001F001F900E000BF00BF012084F83D00B1
:101C100000BF002084F83C0000BF00BF7CE700004C
:101C200088FFFEFF704710B5044620680069C0F3C6
:101C30004000D8B12068C068C0F34000B0B16FF078
:101C4000020021680861012020772068806900F087
:101C5000030018B12046FFF7E5FF05E0204600F03D
:101C6000BEF8204600F0BCF800202077206800690C
:101C7000C0F38000D8B12068C068C0F38000B0B164
:101C80006FF00400216808610220207720688069D5
:101C900000F4407018B12046FFF7C4FF05E020466D
:101CA00000F09DF8204600F09BF800202077206887
:101CB0000069C0F3C000D8B12068C068C0F3C0009C
:101CC000B0B16FF008002168086104202077206817
:101CD000C06900F0030018B12046FFF7A3FF05E03C
:101CE000204600F07CF8204600F07AF800202077AB
:101CF00020680069C0F30010D8B12068C068C0F344
:101D00000010B0B16FF01000216808610820207742
:101D10002068C06900F4407018B12046FFF782FFC8
:101D200005E0204600F05BF8204600F059F800205E
:101D300020772068006900F0010058B12068C06871
:101D400000F0010030B16FF0010021680861204609
:101D500000F047F820680069C0F3C01058B120684F
:101D6000C068C0F3C01030B16FF080002168086116
:101D70002046FFF74DFE20680069C0F3002058B1EF
:101D80002068C068C0F3C01030B16FF48070216863
:101D900008612046FFF73BFE20680069C0F3801011
:101DA00058B12068C068C0F3801030B16FF04000B7
:101DB00021680861204600F015F820680069C0F32A
:101DC000401058B12068C068C0F3401030B16FF0C7
:101DD0002000216808612046FFF71BFE10BD7047F8
:101DE000704770477047704710B50446202084F84C
:101DF000720005492068884204D101220349204627
:101E000000F04CF910BD0000004400401500002017
:101E10002DE9F04104462068C569206806682068FD
:101E2000876805F00F08B8F1000F0CD105F020000D
:101E300048B106F0200030B1206E10B12046216E6E
:101E40008847BDE8F081B8F1000F7FD007F00100AE
:101E500018B906F49070002878D005F0010048B158
:101E600006F4807030B1012021680862606F40F094
:101E70000100606705F0020048B107F0010030B1D1
:101E8000022021680862606F40F00400606705F07E
:101E9000040048B107F0010030B104202168086255
:101EA000606F40F00200606705F0080060B106F066
:101EB000200010B907F0010030B108202168086245
:101EC000606F40F008006067606F78B305F0200035
:101ED00038B106F0200020B1206E10B12046216EEE
:101EE0008847606F00F0080028B92068806800F01B
:101EF0004000402824D1204601F07DF82068806809
:101F000000F04000402817D12068806820F0400091
:101F100021688860E06E58B11F48E16E8863E06E0A
:101F2000FEF7F0F910B1E06E816B88470DE00DE02F
:101F30002046FFF759FF08E02046FFF755FF04E071
:101F40002046FFF751FF002060677AE705F4801014
:101F500050B107F4800038B14FF480102168086256
:101F60002046FFF740FF6CE705F0800040B106F027
:101F7000800028B1606E10B12046616E884760E72E
:101F800005F0400030B106F0400018B1204601F0E5
:101F900044F856E700BF54E7DF2F000810B50446A9
:101FA0000CB9012010BDA06900B100E000BF94F899
:101FB000710028B9002084F87000204600F02AF84B
:101FC000242084F871002068006820F00100216856
:101FD0000860204601F09CF8012800D1E2E7606A21
:101FE00010B1204600F045FF2068406820F4904082
:101FF000216848602068806820F02A002168886095
:102000002068006840F0010021680860204600F068
:10201000ACFFC7E710B586B00446142101A8FEF74F
:102020000AF91C492068884231D100BF1A48806DE6
:1020300040F40030184988650846806D00F400308F
:10204000009000BF00BF00BF0846C06C40F0010018
:10205000C8640846C06C00F00100009000BF00BFDB
:102060000C20019002200290002003900320049095
:102070000720059001A94FF09040FEF7B7F9002224
:1020800011462620FEF725FB2620FEF715FB06B09D
:1020900010BD0000004400400010024010B503468F
:1020A00093F87200202862D101B10AB9012010BD55
:1020B00000BF93F87000012801D10220F7E701204A
:1020C00083F8700000BF5965A3F85820A3F85A2080
:1020D0000020186600BF9868B0F5805F0AD11869C3
:1020E00020B940F2FF10A3F85C001CE0FF20A3F829
:1020F0005C0018E0986848B9186918B9FF20A3F87F
:102100005C0010E07F20A3F85C000CE09868B0F160
:10211000805F08D1186918B97F20A3F85C0002E03D
:102120003F20A3F85C0000BF00205867222083F8FE
:1021300072001868806840F001001C68A060986810
:10214000B0F5805F04D1186910B90A48186601E03B
:102150000948186600BF002083F8700000BF1868A7
:10216000006840F490701C68206000209FE7022007
:102170009DE700003D300008A930000810B5044676
:1021800006492068884208D10548007800F06BFEB7
:10219000012203492046FFF781FF10BD00440040A3
:1021A000150000202DE9F84304460D4616461F464B
:1021B0004FF0000994F87100202855D105B116B9E7
:1021C0000120BDE8F88300BF94F87000012801D118
:1021D0000220F6E7012084F8700000BF002060674D
:1021E000212084F87100FEF709FA8146A4F85060B6
:1021F000A4F8526021E04B4600228021204600973F
:1022000001F0CFF908B10320DBE7A068B0F5805FEB
:102210000AD1206940B9A846B8F80000C0F3080008
:1022200021680885AD1C03E015F8010B21680885BD
:10223000B4F85200401EA4F85200B4F8520000282E
:10224000D9D14B46002240212046009701F0A9F940
:1022500008B10320B5E7202084F8710000BF0020FA
:1022600084F8700000BFACE70220AAE7704700BF07
:10227000FEE7000070B5074C492508E06178227838
:1022800042F0800000F0DAF8A41C681EC5B2002DF0
:10229000F4DC70BD5037000810B500F067F800F0AE
:1022A000E5F8FFF7E7FF0021102000F0C7F80E491E
:1022B00008705521B62000F0C1F80021362000F04A
:1022C000BDF8552801D0012010BDD321B62000F063
:1022D000B5F80021362000F0B1F8D32801D0012054
:1022E000F2E70020F0E700000100002070B50020B8
:1022F0001B4908701B4908700870087000F0B6F898
:1023000019480078232804D14121A52000F096F82F
:1023100003E04221A52000F091F81021A82000F050
:102320008DF81CE064241021812000F087F800BFA4
:102330000021012000F082F800F01C05601EC4B2EC
:10234000102D01D0002CF3D104B908E0002004497D
:1023500008700449087001200870087070BDE1E73A
:10236000060000200000002001000020704770B52A
:1023700006460C4600F07AF80021084600F05EF8A8
:102380002070002506E00021084600F057F870553F
:10239000681CC5B22078A842F5DC1021A82000F006
:1023A0004DF870BD2DE9F04105460E46174F00204F
:1023B00017490870174908700870087000F056F83F
:1023C0000021A52000F03AF81021A82000F036F8EE
:1023D0003146802000F032F8002405E0295D80209D
:1023E00000F02CF8601CC4B2B442F7DB0C21812051
:1023F00000F024F800E07F1E0548007808B9002F9F
:10240000F9D100F033F8BDE8F0810000C0270900E1
:10241000060000200000002001B582B000200190DD
:1024200040F6FF70012301AA02A900900248FFF7BD
:1024300073F99DF804000EBD7405002070B50546C3
:102440000C46002240210848FEF7D2F82846FFF744
:10245000E3FF2046FFF7E0FF064601224021024845
:10246000FEF7C6F8304670BD0004004810B5084CB1
:1024700004218120FFF7E2FF00E0641E00212720F5
:10248000FFF7DCFF00F0800008B9002CF5D110BD8B
:10249000C027090000B587B0142102A8FDF7CBFEC4
:1024A00000BF3148C06C40F004002F49C8640846A2
:1024B000C06C00F00400019000BF00BF00BF0846E0
:1024C000C06C40F08000C8640846C06C00F080001A
:1024D000019000BF00BF00BF0846C06C40F0010083
:1024E000C8640846C06C00F00100019000BF00BF46
:1024F00000BF0846C06C40F00200C8640846C06CCB
:1025000000F00200019000BF00BF012240211748E7
:10251000FEF76EF84FF4005002901548039000202B
:10252000049002A91348FDF761FF80200290124831
:1025300003900120049002A90E48FDF757FF4020A8
:1025400002900120039004900220059002A9074800
:10255000FDF74CFF002203211720FEF7BAF81720E1
:10256000FEF7AAF807B000BD0010024000040048C2
:1025700000002110000800480000111010B512489A
:10258000124908604FF48270486000210F48816052
:102590004FF4E061C1600021016141614FF40071BD
:1025A00081613021C16100210162416281620721A4
:1025B000C1620021016308214163FFF711F808B1EE
:1025C000FDF77EFE10BD00000030014074050020C4
:1025D00000B587B00020039004900590069000900D
:1025E000019002901448154908604F20486000216E
:1025F0001248816040F2E731C160002101618161D0
:10260000FFF744FA08B1FDF75BFE4FF480500390EA
:1026100003A90A48FFF776FA08B1FDF751FE00203A
:102620000090029069460548FFF7F4F908B1FDF7FC
:1026300047FE07B000BD000000040040D8050020A0
:1026400010B50D480D4908604FF4E1304860002195
:102650000A488160C16001610C21416100218161F2
:10266000C16101620020054948620846FFF796FCF7
:1026700008B1FDF725FE10BD0044004018060020FB
:1026800000BFFEE77047000002480068C0F3022068
:10269000704700000CED00E010B5002807DA0A07CB
:1026A000140E054A00F00F031B1FD45403E00A0761
:1026B000130E024A135410BD18ED00E000E400E0D0
:1026C000704700002DE9F04104460F4600255C48A4
:1026D000C06800F0030090B15948C06800F00300E2
:1026E0002168884209D1206838B15548C068C0F3D4
:1026F0000210401C6168884233D0012531E0206817
:10270000012804D0022809D003281AD10DE04C4832
:10271000006800F0020000B9012514E04848006894
:1027200000F4806000B901250DE04548006800F420
:10273000003028B94248006800F4802000B9012523
:1027400001E0012500BF00BF5DB9D4E90010401EC3
:1027500041EA00103A49C96821F073010843384939
:10276000C860002D68D13648006820F08060344988
:102770000860FDF743FF064606E0FDF73FFF801BBC
:10278000022801D9032505E02D48006800F000600B
:102790000028F2D100BFCDBB6FB9A0680002E1688C
:1027A000090940EA414026490969264A114008437F
:1027B0002349086120E0012F0FD1A0680002218A7F
:1027C0000122C2EB510140EA41501D4909691E4AEC
:1027D000114008431A4908610EE0A0680002217DFB
:1027E0000122C2EB510140EA416015490969174ACB
:1027F00011400843124908611148006840F08060A8
:102800000F490860FDF7FAFE064607E014E0FDF701
:10281000F5FE801B022801D9032505E00848006861
:1028200000F000600028F2D000BF2DB90448006914
:10283000A1690843024908612846BDE8F08100000B
:1028400000100240FF80FDFFFF809FFFFF80FFF927
:102850002DE9F04104460F4600255348C06800F0BA
:10286000030090B15048C06800F00300216888421E
:1028700009D1206838B14C48C068C0F30210401C30
:102880006168884233D0012531E02068012804D0F6
:10289000022809D003281AD10DE04348006800F04F
:1028A000020000B9012514E03F48006800F4806090
:1028B00000B901250DE03C48006800F4003028B95B
:1028C0003948006800F4802000B9012501E00125A5
:1028D00000BF00BF5DB9D4E90010401E41EA0010FE
:1028E0003149C96821F0730108432F49C860002DA0
:1028F00056D12D48006820F080502B490860FDF724
:102900007DFE064606E0FDF779FE801B022801D910
:10291000032505E02448006800F000500028F2D1AB
:1029200000BF75BB6FB9A0680002E168090940EA01
:1029300041401D4949691D4A114008431A494861EF
:102940000EE0A0680002217C0122C2EB510140EAA6
:10295000416015494969164A1140084312494861C6
:102960001148006840F080500F490860FDF746FEAE
:10297000064607E0FDF742FE801B022802D9032528
:1029800006E00DE00848006800F000500028F1D093
:1029900000BF2DB904484069616908430249486194
:1029A0002846BDE8F081000000100240FF80FDFFD6
:1029B000FF80FFF9F8B5044600262348806D00F03B
:1029C000805018B1FDF720FF054616E000BF1E48F5
:1029D000806D40F080501C4988650846806D00F08D
:1029E0008050009000BF00BFFDF70EFF054616485F
:1029F000806D20F0805014498865B5F5007F07D1BF
:102A0000802C10D9A02C01D902260CE001260AE066
:102A1000802C01D9032606E0802C01D1022602E099
:102A2000702C00D101260948006820F007003043CF
:102A3000064908600846006800F00700B04201D06F
:102A40000120F8BD0020FCE70010024000200240F9
:102A5000F8B504460E461546334600224FF4C051E1
:102A60002046009500F026F828B1206E40F02000A6
:102A700020660320F8BD33460022802120460095C1
:102A800000F06DF828B1206E40F020002066032091
:102A9000F0E7334600224FF4C0612046009500F075
:102AA00009F828B1206E40F0200020660320E1E7FD
:102AB0000020DFE72DE9F04104460E4617461D468B
:102AC000DDF8188044E0B6F5C06F02D10FB9206878
:102AD000007B681CD8B3FDF791FDA0EB0800A8426D
:102AE00000D2A5BB2068406820F0E0002168486063
:102AF0006068B0F5827F0DD1A068B0F5004F03D0BB
:102B0000A068B0F5806F05D12068006820F0400013
:102B100021680860A06AB0F5005F0DD100BF206891
:102B2000006820F40050216808602068006840F4C4
:102B300000502168086000BF012084F85D0000BFDC
:102B4000002084F85C0000BF0320BDE8F081FFE7AF
:102B5000206880683040B842B5D10020F5E72DE903
:102B6000F04104460E4617461D46DDF818803EE04B
:102B7000681CD8B3FDF742FDA0EB0800A84200D2C4
:102B8000A5BB2068406820F0E000216848606068CC
:102B9000B0F5827F0DD1A068B0F5004F03D0A068DA
:102BA000B0F5806F05D12068006820F040002168F2
:102BB0000860A06AB0F5005F0DD100BF2068006812
:102BC00020F40050216808602068006840F400503C
:102BD0002168086000BF012084F85D0000BF00206C
:102BE00084F85C0000BF0320BDE8F081FFE72068A7
:102BF00080683040B04201D1012000E00020B8429E
:102C0000B6D10020F0E7704710B5044604492068AB
:102C1000884204D1012203492046FFF73FFA10BD44
:102C2000004400401500002010B5FDF7EDFC10BD7C
:102C300000B5B9B0442128A8FDF7FDFA142123A856
:102C4000FDF7F9FA882101A8FDF7F5FA022028908E
:102C5000C0012B9010202C9002203290022128A835
:102C6000C162012101630A214163072181630221BD
:102C7000C1630164FEF7AEF908B1FDF721FB0F2037
:102C80002390032024900020259026902790042153
:102C900023A8FEF72BF808B1FDF712FB02200190E4
:102CA0000020109001A8FDF7B7FD08B1FDF708FB63
:102CB0004FF40070FDF762FD08B1FDF701FB39B07C
:102CC00000BD00001048006840F470000E49086024
:102CD0000E48006840F001000C4908600020886040
:102CE000084600680A490840084908608814C86016
:102CF0000846006820F48020086000208861C8032E
:102D0000014980390860704788ED00E000100240FA
:102D1000FFFFF6EA10B50248FEF785FF10BD000080
:102D2000D805002010B50268294B98420ED0B0F1AA
:102D3000804F0BD0274B984208D0274B984205D0A4
:102D4000264B984202D0264B984203D122F07002C3
:102D50004B681A431E4B984217D0B0F1804F14D0E5
:102D60001C4B984211D01C4B98420ED01B4B9842E2
:102D70000BD01B4B984208D01A4B984205D01A4BE7
:102D8000984202D0194B984203D122F44072CB688A
:102D90001A4322F080034C6943EA040202608B6804
:102DA000C3620B6883620A4B98420BD00C4B98426B
:102DB00008D00C4B984205D00B4B984202D00B4BDD
:102DC000984201D10B6903630123436110BD0000E8
:102DD000002C01400004004000080040000C0040AE
:102DE00000340140004001400044014000480140DF
:102DF00030B50C46816821F47F4142EA0325254322
:102E00002943816030BD0A46816821F0700142F09B
:102E1000070319438160704730B50B461446026AB8
:102E2000056A25F001050562816921F0F00141EA9A
:102E3000041122F00A021A438161026230BD30B5EA
:102E40000B461446056A25F0100505628169026A81
:102E500021F4704141EA043122F0A00242EA031257
:102E60008161026230BD10B50446204600F0EAFBE5
:102E700010BD90F8241001F0010139B101684968D2
:102E800021F40031826A11430268516090F82410E5
:102E900001F00201022907D10168496821F480315B
:102EA000C26A11430268516090F8241001F00401D5
:102EB000042907D10168496821F48021026B11437C
:102EC0000268516090F8241001F00801082907D128
:102ED0000168496821F40041426B11430268516066
:102EE00090F8241001F01001102907D101688968B9
:102EF00021F48051826B11430268916090F8241094
:102F000001F02001202907D10168896821F40051CE
:102F1000C26B11430268916090F8241001F04001E7
:102F2000402913D10168496821F48011026C1143D2
:102F300002685160016CB1F5801F07D101684968D2
:102F400021F4C001426C11430268516090F82410D2
:102F500001F08001802907D10168496821F400212E
:102F6000826C114302685160704738B504460025F1
:102F700000206067FDF742FB05462068006800F00E
:102F8000080008280CD16FF07E402B4600224FF439
:102F900000110090204600F004FB08B1032038BD6A
:102FA0002068006800F0040004280CD16FF07E4017
:102FB0002B4600224FF480010090204600F0F1FAE9
:102FC00008B10320EBE7202084F8710084F8720038
:102FD00000BF002084F8700000BF00BFDFE770B5BD
:102FE0000546AC6A0020A4F85A00A4F85200204616
:102FF000FEF7FAFE70BD0168096821F4907102685D
:1030000011600168896821F0010102689160202146
:1030100080F8721000210166704710B504462068E0
:10302000006820F0400021680860202084F87100CA
:10303000002060662046FFF719F910BD2DE9F04128
:103040000446B4F85C7094F87200222824D12068F9
:10305000868C656D06EA07002880606D801C6065BF
:10306000B4F85A00401E80B2A4F85A00D0B92068C3
:10307000006820F49070216808602068806820F063
:10308000010021688860202084F8720000202066FA
:103090002046FFF773F805E02068008B40F0080039
:1030A00021680883BDE8F08170B50446B4F85C601F
:1030B00094F87200222823D12068858CF0B2284031
:1030C000626D511C61651070B4F85A00401E80B2E8
:1030D000A4F85A00D0B92068006820F490702168E4
:1030E00008602068806820F0010021688860202046
:1030F00084F87200002020662046FFF73FF805E0C4
:103100002068008B40F008002168088370BD000033
:103110002DE9F84F04464FF0000910264FF0000B40
:103120000025002000908246F7492068884200D19F
:1031300000E000BF2169A068084361690843E169B4
:1031400040EA010920680068F049084040EA0900A7
:10315000216808602068406820F44050E168084316
:1031600021684860D4F81890E7492068884202D066
:10317000206A40EA09092068806820F4306040EA4B
:1031800009002168886000BFE1492068884216D1A3
:10319000E048006800F0030030B1012808D00228A0
:1031A00004D0032808D105E0012607E0022605E047
:1031B000042603E0082601E0102600BF8CE0D64973
:1031C0002068884216D1D348006800F00C0030B166
:1031D000042808D0082804D00C2808D105E00026CF
:1031E00007E0022605E0042603E0082601E0102699
:1031F00000BF71E0C9492068884216D1C5480068FF
:1032000000F0300030B1102808D0202804D0302839
:1032100008D105E0002607E0022605E0042603E0C9
:10322000082601E0102600BF56E0BD49206888420C
:1032300016D1B848006800F0C00030B1402808D06E
:10324000802804D0C02808D105E0002607E0022627
:1032500005E0042603E0082601E0102600BF3BE05D
:10326000B0492068884219D1AA48006800F440702B
:1032700048B1B0F5807F0AD0B0F5007F05D0B0F539
:10328000407F08D105E0002607E0022605E004267D
:1032900003E0082601E0102600BF1DE09A492068DF
:1032A000884219D19B48006800F4406048B1B0F5ED
:1032B000806F0AD0B0F5006F05D0B0F5406F08D12F
:1032C00005E0002607E0022605E0042603E00826C4
:1032D00001E0102600BF00BF00BF8B492068884274
:1032E00072D1042E10D003DC3EB1022E13D108E0BF
:1032F000082E0DD0102E0ED10EE0FDF7B9FD82463E
:103300000DE0DFF824A20AE0FDF7D6FD824606E0D4
:103310004FF4004A03E000BF0120009000BF00BF4F
:10332000BAF1000F0AD0606800EB4000504503D8A6
:1033300060680003504502D20120009025E1042E70
:103340002ED003DC3EB1022E51D118E0082E3CD025
:10335000102E4CD14CE0FDF78BFD4FF48071A0FB9B
:103360000131606840081F1841F10001D4F804C021
:10337000624600233846FCF723FF05463BE0D4F8BD
:1033800004C04FEA5C000021684BC71841EB0108FC
:1033900062460B4638464146FCF712FF05462AE0D6
:1033A000FDF78AFD4FF48071A0FB01306168490888
:1033B0005F1840F10001D4F804C06246002338468B
:1033C000FCF7FEFE054616E022E0D4F804C04FEA02
:1033D0005C0000214FF40003C71841EB010862466E
:1033E0000B4638464146FCF7EBFE054603E000BFBE
:1033F0000120009000BF00BFB5F5407F05D3B5F5B3
:10340000801F02D22068C560BFE001200090BCE0B0
:10341000E069B0F5004F57D1042E28D005DC4EB13D
:10342000012E11D0022E36D118E0082E29D0102EF0
:1034300031D131E0FDF71CFD4000616800EB510027
:10344000B0FBF1F085B22AE0FDF724FD4000616891
:1034500000EB5100B0FBF1F085B220E03449606828
:1034600001EB50006168B0FBF1F085B217E0FDF7A9
:1034700023FD4000616800EB5100B0FBF1F085B224
:103480000DE04FF48031606801EB50006168B0FBE3
:10349000F1F085B203E000BF0120009000BF00BF43
:1034A000102D0ED3B5F5803F0BD24FF6F07005EA24
:1034B000000BC5F342004BEA000B2068C0F80CB0CB
:1034C00063E00120009060E0042E3CD005DC4EB1AA
:1034D000012E10D0022E49D12CE0082E3CD0102E07
:1034E00044D144E0FDF7C4FC616800EB5100B0FB3F
:1034F000F1F085B23EE0FDF7CDFC616800EB5100D4
:10350000B0FBF1F085B235E000800040F369FFEFD9
:10351000003801408810024000440040004800404C
:10352000004C0040005000400024F400000024F44F
:103530000048E8011849606801EB50006168B0FB81
:10354000F1F085B216E0FDF7B7FC616800EB5100C1
:10355000B0FBF1F085B20DE04FF40041606801EB83
:1035600050006168B0FBF1F085B203E000BF0120BC
:10357000009000BF00BF102D05D3B5F5803F02D2EB
:103580002068C56001E00120009000202066606690
:10359000009800F003B800000024F40018BCBDE857
:1035A000E08F2DE9F04104460D4617469846069EE9
:1035B00021E0701CF8B12EB1FDF720F8A0EB080057
:1035C000B04218D92068006820F4D07021680860E3
:1035D0002068806820F0010021688860202084F83D
:1035E000710084F8720000BF002084F8700000BFF2
:1035F0000320BDE8F0812068C0692840A84201D1BD
:10360000012000E00020B842D3D00020F1E7000004
:1036100010B50248FEF7FCFB10BD000018060020A4
:1036200000BFFEE702E008C8121F08C1002AFAD155
:1036300070477047002001E001C1121F002AFBD132
:103640007047000002460B4801680B480068814241
:1036500002D14FF0FF3070470848425440F2AF406B
:10366000814201D2481C00E00020024B186000207B
:10367000F1E70000080000200C000020840000207A
:10368000FCF7CAFFFFF7D4FAFEF704FFFEF7A0FF2E
:10369000FEF7D6FFFEF772FF0C48FFF7B5FAFEF70C
:1036A000FBFD18B140F6B830FCF75AFE4FF4FA6053
:1036B000FCF756FE40F6FF73052205490348FEF766
:1036C00071FD01E000F006F8FCE70000180600209C
:1036D0001000002008B5002500200090002464217F
:1036E0001748FCF7A8FD40211648FCF7A4FDFEF79B
:1036F000FDFD00BF3220FCF733FE002400BF68460A
:10370000FCF7E0FD054635B99DF800202046611C18
:10371000CCB20C490A540DB9402CF0DB002CE9D096
:103720000120094908700020084908702146054811
:10373000FEF738FE002004490870FEF7D7FDD9E7F0
:103740002000002034050020050000200600002095
:1037500001040200030D040505010648076C084C2E
:1037600009CD0A410B000C020D920EF50F20119F9E
:103770001209131B144015B0167B179B188919C426
:103780001A8B1B401C801D061E102500260729E8E9
:103790002A002B002C002D042E9A2FD3309131D3E8
:1037A000329133003400350036003790384239000A
:1037B0003A003B003CC23D023E003F004000410059
:1037C00042004300440045004600470048004900CD
:1037D0004A004B004C004D00582D5A555C706F301C
:1037E00071006C40006C4CCD6C599A6C66676C73C0
:1037F000346C80016C8CCE6C999B6CA6686CB33574
:103800006CC0020000000000000000000102030480
:10381000060708090000000001020304A086010059
:10382000400D0300801A060000350C0040420F00D6
:1038300080841E0000093D0000127A000024F4007C
:1038400000366E010048E801006CDC026C380008AC
:103850000000002020000000243600088C380008FA
:1038600020000020700A000034360008000000002C
:103870000000000000000000AF04000074657374D5
:0C388000000000000000000000093D00F6
:040000050800018965
:00000001FF
